{
  "contractName": "Contacts",
  "abi": [
    {
      "inputs": [],
      "name": "count",
      "outputs": [
        {
          "internalType": "uint256",
          "name": "",
          "type": "uint256"
        }
      ],
      "stateMutability": "view",
      "type": "function",
      "constant": true
    }
  ],
  "bytecode": "0x608060405260008055348015601357600080fd5b506099806100226000396000f3fe6080604052348015600f57600080fd5b50600436106044577c0100000000000000000000000000000000000000000000000000000000600035046306661abd81146049575b600080fd5b605160005481565b60405190815260200160405180910390f3fea26469706673582212209d88b5f87b3a4baea8f49fb50cdacd0f5b60862c68265c8c0a1dfe104b3b3f1564736f6c634300080a0033",
  "immutableReferences": {},
  "source": "pragma solidity >=0.4.22 <0.9.0;\n\ncontract Contacts {\n    uint public count = 0; // state variable\n}",
  "sourcePath": "/home/jennifer/Projects/web3-tutorial/contracts/contracts/contacts.sol",
  "compiler": {
    "name": "solc",
    "version": "0.8.10+commit.fc410830.Emscripten.clang"
  },
  "schemaVersion": "3.4.3",
  "updatedAt": "2022-01-02T02:00:03.237Z",
  "networkType": "ethereum",
  "devdoc": {
    "kind": "dev",
    "methods": {},
    "version": 1
  },
  "userdoc": {
    "kind": "user",
    "methods": {},
    "version": 1
  }
}