{
  "contractName": "Contacts",
  "abi": [
    {
      "inputs": [],
      "stateMutability": "nonpayable",
      "type": "constructor"
    },
    {
      "inputs": [
        {
          "internalType": "uint256",
          "name": "",
          "type": "uint256"
        }
      ],
      "name": "contacts",
      "outputs": [
        {
          "internalType": "uint256",
          "name": "id",
          "type": "uint256"
        },
        {
          "internalType": "string",
          "name": "name",
          "type": "string"
        },
        {
          "internalType": "string",
          "name": "phone",
          "type": "string"
        }
      ],
      "stateMutability": "view",
      "type": "function",
      "constant": true
    },
    {
      "inputs": [],
      "name": "count",
      "outputs": [
        {
          "internalType": "uint256",
          "name": "",
          "type": "uint256"
        }
      ],
      "stateMutability": "view",
      "type": "function",
      "constant": true
    },
    {
      "inputs": [
        {
          "internalType": "string",
          "name": "_name",
          "type": "string"
        },
        {
          "internalType": "string",
          "name": "_phone",
          "type": "string"
        }
      ],
      "name": "createContact",
      "outputs": [],
      "stateMutability": "nonpayable",
      "type": "function"
    }
  ],
  "bytecode": "0x60806040526000805534801561001457600080fd5b506100986040518060400160405280600881526020017f4a656e6e696665720000000000000000000000000000000000000000000000008152506040518060400160405280600a81526020017f343133353539313034320000000000000000000000000000000000000000000081525061009d640100000000026401000000009004565b61024c565b6000805490806100ac836101b6565b9091555050604080516060810182526000805480835260208084018781528486018790529183526001808252949092208351815590518051939491936100fa9392850192919091019061011d565b506040820151805161011691600284019160209091019061011d565b5050505050565b828054610129906101f8565b90600052602060002090601f01602090048101928261014b5760008555610191565b82601f1061016457805160ff1916838001178555610191565b82800160010185558215610191579182015b82811115610191578251825591602001919060010190610176565b5061019d9291506101a1565b5090565b5b8082111561019d57600081556001016101a2565b60006000198214156101f1577f4e487b7100000000000000000000000000000000000000000000000000000000600052601160045260246000fd5b5060010190565b60028104600182168061020c57607f821691505b60208210811415610246577f4e487b7100000000000000000000000000000000000000000000000000000000600052602260045260246000fd5b50919050565b6105878061025b6000396000f3fe608060405234801561001057600080fd5b506004361061005d577c0100000000000000000000000000000000000000000000000000000000600035046306661abd81146100625780633dce49201461007e578063e0f478cb14610093575b600080fd5b61006b60005481565b6040519081526020015b60405180910390f35b61009161008c3660046103bc565b6100b5565b005b6100a66100a1366004610420565b610135565b60405161007593929190610486565b6000805490806100c4836104bb565b90915550506040805160608101825260008054808352602080840187815284860187905291835260018082529490922083518155905180519394919361011293928501929190910190610267565b506040820151805161012e916002840191602090910190610267565b5050505050565b600160208190526000918252604090912080549181018054610156906104fd565b80601f0160208091040260200160405190810160405280929190818152602001828054610182906104fd565b80156101cf5780601f106101a4576101008083540402835291602001916101cf565b820191906000526020600020905b8154815290600101906020018083116101b257829003601f168201915b5050505050908060020180546101e4906104fd565b80601f0160208091040260200160405190810160405280929190818152602001828054610210906104fd565b801561025d5780601f106102325761010080835404028352916020019161025d565b820191906000526020600020905b81548152906001019060200180831161024057829003601f168201915b5050505050905083565b828054610273906104fd565b90600052602060002090601f01602090048101928261029557600085556102db565b82601f106102ae57805160ff19168380011785556102db565b828001600101855582156102db579182015b828111156102db5782518255916020019190600101906102c0565b506102e79291506102eb565b5090565b5b808211156102e757600081556001016102ec565b7f4e487b7100000000000000000000000000000000000000000000000000000000600052604160045260246000fd5b600082601f83011261034057600080fd5b813567ffffffffffffffff8082111561035b5761035b610300565b604051601f8301601f19908116603f0116810190828211818310171561038357610383610300565b8160405283815286602085880101111561039c57600080fd5b836020870160208301376000602085830101528094505050505092915050565b600080604083850312156103cf57600080fd5b823567ffffffffffffffff808211156103e757600080fd5b6103f38683870161032f565b9350602085013591508082111561040957600080fd5b506104168582860161032f565b9150509250929050565b60006020828403121561043257600080fd5b5035919050565b6000815180845260005b8181101561045f57602081850181015186830182015201610443565b81811115610471576000602083870101525b50601f01601f19169290920160200192915050565b83815260606020820152600061049f6060830185610439565b82810360408401526104b18185610439565b9695505050505050565b60006000198214156104f6577f4e487b7100000000000000000000000000000000000000000000000000000000600052601160045260246000fd5b5060010190565b60028104600182168061051157607f821691505b6020821081141561054b577f4e487b7100000000000000000000000000000000000000000000000000000000600052602260045260246000fd5b5091905056fea2646970667358221220544d9086aebb5e3ef4bedbb306833935668f32a6308685c0877e5dbd587c0d5264736f6c634300080a0033",
  "immutableReferences": {},
  "source": "// SPDX-License-Identifier: MIT \n\npragma solidity >=0.4.22 <0.9.0;\n\ncontract Contacts {\n    uint public count = 0; // state variable\n\n    struct Contact {\n        uint id;\n        string name;\n        string phone;\n    }\n\n    constructor() {\n        createContact('Jennifer', '4135591042');\n    }\n\n    mapping(uint => Contact) public contacts; \n\n    function createContact(string memory _name, string memory _phone) public {\n        count++; \n        contacts[count] = Contact(count, _name, _phone);\n    }\n}",
  "sourcePath": "/home/jennifer/Projects/web3-tutorial/contacts/contracts/Contacts.sol",
  "compiler": {
    "name": "solc",
    "version": "0.8.10+commit.fc410830.Emscripten.clang"
  },
  "schemaVersion": "3.4.3",
  "updatedAt": "2022-01-02T08:22:18.500Z",
  "networkType": "ethereum",
  "devdoc": {
    "kind": "dev",
    "methods": {},
    "version": 1
  },
  "userdoc": {
    "kind": "user",
    "methods": {},
    "version": 1
  }
}